:100000000C9462000C948A000C948A000C948A0070
:100010000C948A000C948A000C948A000C948A0038
:100020000C948A000C948A000C948A000C948E071D
:100030000C948A000C948A000C948A000C948A0018
:100040000C9444070C948A000C9412070C94EC0650
:100050000C948A000C948A000C948A000C948A00F8
:100060000C948A000C948A000000000025002800EF
:100070002B0000000000240027002A0000000000E0
:1000800023002600290004040404040404040202DA
:100090000202020203030303030301020408102007
:1000A0004080010204081020010204081020000012
:1000B0000008000201000003040700000000000027
:1000C00000004A0811241FBECFEFD8E0DEBFCDBF2D
:1000D00011E0A0E0B1E0E0ECF6E102C005900D9285
:1000E000AA33B107D9F722E0AAE3B1E001C01D921B
:1000F000AA31B207E1F710E0C2E6D0E004C02197D0
:10010000FE010E94580BC136D107C9F70E94B308FF
:100110000C945E0B0C9400008CBD9DBD08958F92D5
:100120009F92AF92BF92FF920F931F93CF93DF9353
:10013000F09007022BE02F1508F44CC02091090223
:1001400008E512E0021B110927FD1395000F111F8E
:10015000000F111F20910802C8E8D0E0C21BD1098E
:1001600027FDD395CC0FDD1FCC0FDD1F4E010D2ECB
:10017000000CAA08BB089801012E000C440B550B7B
:10018000281939094A095B09DC010E94130B24EB89
:1001900030E040E050E00E94E90A820E931EA41E67
:1001A000B51E8C169D062CF0E801801691060CF405
:1001B000E4012297CC0FDD1F2FB7F8948F2D90E02C
:1001C000FC01EE0FFF1FE80FF91FEE51FE4FD28327
:1001D000C1832FBFDF91CF911F910F91FF90BF90EF
:1001E000AF909F908F900895AF92BF92CF92DF9281
:1001F000EF92FF920F931F93CF93DF936C017B01DC
:100200008B01040F151FEB015E01AE18BF08C0176C
:10021000D10759F06991D601ED91FC910190F081DF
:10022000E02DC6010995892B79F7C501DF91CF91A2
:100230001F910F91FF90EF90DF90CF90BF90AF9004
:100240000895FC01538D448D252F30E0842F90E0DC
:10025000821B930B541710F0CF96089501970895C1
:10026000FC01918D828D981761F0A28DAE0FBF2F8A
:10027000B11D5D968C91928D9F5F9F73928F90E0E0
:1002800008958FEF9FEF0895FC01918D828D98174F
:1002900031F0828DE80FF11D858D90E008958FEF8C
:1002A0009FEF0895FC01918D228D892F90E0805C55
:1002B0009F4F821B91098F739927089585E491E0E0
:1002C0000E94520121E0892B09F420E0822F089539
:1002D00080E090E0892B29F00E945E0181110C944E
:1002E00000000895FC01A48DA80FB92FB11DA35AD9
:1002F000BF4F2C91848D90E001968F739927848F46
:10030000A689B7892C93A089B1898C918370806468
:100310008C93938D848D981306C00288F389E02D09
:1003200080818F7D80830895EF92FF920F931F93BA
:10033000CF93DF93EC0181E0888F9B8D8C8D981398
:100340001AC0E889F989808185FF15C09FB7F894A4
:10035000EE89FF896083E889F989808183708064F0
:1003600080839FBF81E090E0DF91CF911F910F913B
:10037000FF90EF900895F62E0B8D10E00F5F1F4F4A
:100380000F731127E02E8C8D8E110CC00FB607FC59
:10039000FACFE889F989808185FFF5CFCE010E94E7
:1003A0007201F1CFEB8DEC0FFD2FF11DE35AFF4FE2
:1003B000F0829FB7F8940B8FEA89FB898081806275
:1003C000CFCFCF93DF93EC01888D8823B9F0AA8932
:1003D000BB89E889F9898C9185FD03C0808186FD00
:1003E0000DC00FB607FCF7CF8C9185FFF2CF80814F
:1003F00085FFEDCFCE010E947201E9CFDF91CF9151
:100400000895833081F028F4813099F08230A9F08A
:1004100008958730A9F08830C9F08430B1F4809114
:1004200080008F7D03C0809180008F778093800053
:10043000089584B58F7784BD089584B58F7DFBCFF3
:100440008091B0008F778093B00008958091B000C4
:100450008F7DF9CF1F93CF93DF93282F30E0F901E1
:10046000E255FF4F8491F901E656FF4FD491F9010F
:10047000EA57FF4FC491CC23A9F0162F81110E9497
:100480000102EC2FF0E0EE0FFF1FE859FF4FA5919E
:10049000B4918FB7F894EC91111108C0D095DE2378
:1004A000DC938FBFDF91CF911F910895DE2BF8CFA2
:1004B000CF93DF9390E0FC01E656FF4F24918A57DB
:1004C0009F4FFC0184918823D1F090E0880F991F01
:1004D000FC01EE58FF4FA591B491FC01E859FF4F84
:1004E000C591D49161110EC09FB7F8948C91E22F01
:1004F000E0958E238C932881E223E8839FBFDF91D0
:10050000CF9108958FB7F894EC91E22BEC938FBFC5
:10051000F6CF3FB7F89480913C0190913D01A091B6
:100520003E01B0913F0126B5A89B05C02F3F19F0B1
:100530000196A11DB11D3FBFBA2FA92F982F882763
:10054000BC01CD01620F711D811D911D42E0660F3E
:10055000771F881F991F4A95D1F708958F929F9210
:10056000AF92BF92CF92DF92EF92FF924B015C016C
:100570000E9489026B017C010E9489026C197D092D
:100580008E099F09683E734081059105A8F321E01B
:10059000821A9108A108B10888EEC80E83E0D81E1F
:1005A000E11CF11C81149104A104B10429F7FF900E
:1005B000EF90DF90CF90BF90AF909F908F90089575
:1005C000BC016E5F7F4FDC01ED91FC910190F081E9
:1005D000E02D40E0099591E0811190E0892F089588
:1005E00008958EBD00000DB407FEFDCF8EB50895B1
:1005F000DF92EF92FF920F931F93CF93DF937C01D3
:10060000062FD42E152F80E590E00E948C0060E02C
:10061000F70186850E942A0282E10E94F102CD2D17
:10062000D12F0C0F1D2F111DC017D10721F089915B
:100630000E94F102F9CF61E0F7018685DF91CF9149
:100640001F910F91FF90EF90DF900C942A021F935F
:10065000CF93DF93EC01162F80E590E00E948C0091
:1006600060E08E850E942A02812F80680E94F1023C
:1006700080E00E94F102182F61E08E850E942A021C
:10068000812FDF91CF911F9108950F931F93CF93E7
:10069000DF93EC01062F142F80E590E00E948C0080
:1006A00060E08E850E942A02802F0E94F102812F35
:1006B0000E94F10261E08E85DF91CF911F910F9131
:1006C0000C942A02CF92DF92EF92FF920F931F9326
:1006D000CF93DF93EC016B01F42E890140E062E0DF
:1006E0000E94450344E06AE0CE010E94450340E8D1
:1006F00064E1CE010E944503A6016F2DCE010E9448
:10070000F80243E062E0CE010E9445038FB7F894FF
:10071000C0904101D0904201E0904301F09044012B
:100720008FBF89E5C80ED11CE11CF11C6AE0CE0127
:100730000E94270382FF1BC040E062E0CE010E94BE
:10074000450364E4CE010E942703F801808362E43C
:10075000CE010E942703F801818380E0DF91CF91D1
:100760001F910F91FF90EF90DF90CF9008952FB7DA
:10077000F8948091410190914201A0914301B09180
:1007800044012FBF8C159D05AE05BF0578F283E0AF
:10079000E5CF2F923F924F925F926F927F928F920E
:1007A0009F92AF92CF92DF92EF92FF920F931F939F
:1007B000CF93DF9300D0CDB7DEB74C012B01D42E01
:1007C000390180E0E114F10411F0F70180813C2C43
:1007D000329490EF3922380E40E062E0C4010E946A
:1007E00045034FE768E0C4010E94450340E864E127
:1007F000C4010E944503A2016D2DC4010E94F802AC
:10080000432D6AE1C4010E9445034CE062E0C4014B
:100810000E9445036AE1C4010E942703482F4068F3
:100820006AE1C4010E9445038FB7F894209041010A
:100830003090420140904301509044018FBFF4E258
:100840002F0E311C411C511C68E0C4010E9427037B
:10085000982F907309F0C0C080FF15C083E00F90FF
:100860000F90DF91CF911F910F91FF90EF90DF904C
:10087000CF90AF909F908F907F906F905F904F90B0
:100880003F902F9008952FB7F89480914101909157
:100890004201A0914301B09144012FBF82159305FD
:1008A000A405B50588F2DACF6114710409F469C0B2
:1008B0000115110509F465C064E1C4010E94270314
:1008C000382EF8018081831508F480C030823320EF
:1008D000E1F180E590E00E948C0060E0F401868503
:1008E0000E942A023A9482E90E94F102CC20B1F0DF
:1008F0008FEF90E09C0102C0220F331FCA94E2F7F1
:10090000690182E90E94F1029C2D9095F3012081FA
:1009100092238C21982B9083CC24C39423014C0CDC
:10092000511CC31440F482E90E94F102F201819348
:100930002F01C394F6CF80E00E94F102F201808380
:1009400061E0F40186850E942A0268E1C4010E94E8
:1009500027038770E114F10411F0F701808323FC71
:1009600037C061147104B1F10115110599F1AA2084
:1009700089F1F8014081413031F4843029F58FEF5D
:100980006ECF80E0ECCF4230F8F081111DC04250B4
:100990009E012F5F3F4FB301C4010E94620381118A
:1009A0005ECFF8019081690E711CF30132972081AE
:1009B0009981291309C0F1E06F1A7108F3012081B0
:1009C0009A81291709F44BCF87E049CF84E047CFBC
:1009D00082E045CF80E043CF6CE0C4010E94270352
:1009E000282E837109F460CF81E039CF8F929F92D6
:1009F000AF92CF92EF92FF920F931F93CF93DF931B
:100A000000D000D01F92CDB7DEB74C0182E08D83BD
:100A100040E064E2C4010E94450340E066E2C40194
:100A20000E94450346E268E4C4010E94450386E251
:100A30008B838D818230D8F16CE1C4010E94270341
:100A4000482F4F776CE1C4010E94450387E08C83F7
:100A5000A12CC12CCE0104967C018E010B5F1F4F8F
:100A60009E012F5F3F4F41E0BE016D5F7F4FC4018C
:100A70000E94C903982F811117C08D818230B9F46B
:100A80008C81811114C081E00F900F900F900F9016
:100A90000F90DF91CF911F910F91FF90EF90CF902A
:100AA000AF909F908F90089581E0923069F380E03D
:100AB000EBCF2F923F924F925F926F927F928F92E5
:100AC0009F92AF92BF92CF92DF92EF92FF920F93DD
:100AD0001F93CF93DF93CDB7DEB72D970FB6F89462
:100AE000DEBF0FBECDBF16E0413508F04AC1342E3F
:100AF0003B014C016CE10E942703482F4F776CE1CA
:100B0000C4010E94450383E98983332029F081E0F1
:100B1000F3019081953008F480E022242394B12CD5
:100B20009B2D990F990F990FD32CD91AD7FCD12C43
:100B300032E0882319F098E89B8333E021E09D2D73
:100B4000977009F420E09D2D959595959595290F21
:100B5000C9F094E0811193E0291708F4922FEB2D4E
:100B6000F0E03196E60DF71D232F4191A1E0B0E0B2
:100B7000AC0FBD1FA20FB11D4C932F5F422F431B23
:100B8000491798F3882311F0F8E0DF0E8FE18D15F7
:100B90000CF082C090E79A838B819C8189279D818C
:100BA00089279E8189278F839E01285F3F4F47E0D9
:100BB000BE016F5F7F4FC4010E946203182F811135
:100BC000E0C01A86E3E0EB87DC86CE0107962C01B5
:100BD00099E09D87CA844C2D4295407F4C0D6AE177
:100BE000C4010E944503A12CCE010A967C018E010E
:100BF000055F1F4F92014D85BE016F5F7F4FC4019E
:100C00000E94C903182F823009F065C06CE1C4014D
:100C10000E94270385FDB5C08F7109F480E2282F5B
:100C200030E04D2DDD0C550B421753070CF09DC0E5
:100C3000D82EE82FE595E595E595EF5F982F97700D
:100C400081E009F480E0E80F81E090E08C0F9D1FC7
:100C50008E0F911DFC01215031092770332781E04F
:100C600090E002C0880F991F2A95E2F79C018081CD
:100C7000822B80838BCF85E98983332031F081E01B
:100C8000F3019081983008F04BCF80E049CF87E99D
:100C9000898326E0B22EF9CF9D2D97709A878D2DEE
:100CA0008595859585958E5F282F2295207F290F24
:100CB0002A8321E0911101C020E0280F2D874424D0
:100CC0004394512C4C0E5D1E480E511CE9E0E81B6C
:100CD000EB87DC867FCF811154C080E2D82E9C85C3
:100CE00090320CF457CF8B81883809F040C083E0F4
:100CF00093E0EB2DF0E03196E60DF71D980FA1E0A3
:100D0000B0E0AC0FBD1FA80FB11D2C9121938F5FD8
:100D10008913F5CFBB84E3E0BE124DC08A858111F3
:100D20004AC09E012D5F3F4F41E0B201C4010E94C5
:100D30006203182F811125C09B81F20181819813D4
:100D40003CC09C818281981338C0808182FF12C090
:100D50002394F2E02F1609F48ECF83E0281609F4CD
:100D600096CF91E0291609F4CECE15E00AC082E0B4
:100D700094E0BFCFF3018387822D880F820D8F5FB0
:100D80008083812F2D960FB6F894DEBF0FBECDBFA6
:100D9000DF91CF911F910F91FF90EF90DF90CF9057
:100DA000BF90AF909F908F907F906F905F904F908B
:100DB0003F902F90089511E0E4CF17E0E2CFFC01BF
:100DC00001900020E9F73197AF01481B590BBC0196
:100DD00085E491E00C94F4001F920F920FB60F92ED
:100DE00011242F933F934F935F936F937F938F9330
:100DF0009F93AF93BF93EF93FF9385E491E00E949D
:100E00007201FF91EF91BF91AF919F918F917F916F
:100E10006F915F914F913F912F910F900FBE0F9067
:100E20001F9018951F920F920FB60F9211242F93B7
:100E30008F939F93EF93FF93E0915501F0915601AB
:100E40008081E0915B01F0915C0182FD1BC090818B
:100E500080915E018F5F8F7320915F01821741F057
:100E6000E0915E01F0E0EB5BFE4F958F80935E01B9
:100E7000FF91EF919F918F912F910F900FBE0F9047
:100E80001F9018958081F4CF1F920F920FB60F928A
:100E900011242F933F938F939F93AF93BF93809190
:100EA000410190914201A0914301B09144013091E0
:100EB0003B0123E0230F2D3758F50196A11DB11DED
:100EC00020933B018093410190934201A093430101
:100ED000B093440180913C0190913D01A0913E016D
:100EE000B0913F010196A11DB11D80933C019093EB
:100EF0003D01A0933E01B0933F01BF91AF919F91FF
:100F00008F913F912F910F900FBE0F901F901895CA
:100F100026E8230F0296A11DB11DD2CF1F920F927A
:100F20000FB60F9211242F933F934F935F936F93BC
:100F30007F938F939F93AF93BF93CF93DF93EF9361
:100F4000FF9380913A01C0910602D0E087FF24C050
:100F5000109285001092840080913A018F5F8093F7
:100F60003A0180913A01082E000C990B8C179D07CD
:100F700024F480913A018C30C4F1809184009091E6
:100F80008500049680349C4908F47AC080918400DE
:100F900090918500049676C080913A01082E000C4D
:100FA000990B8C179D07C4F6E0913A018E2FEE0F36
:100FB000990BFC01EE0FFF1FE80FF91FEE51FE4FDA
:100FC000808186FFC9CFE0913A018E2FEE0F990BF9
:100FD000FC01EE0FFF1FE80FF91FEE51FE4F80815D
:100FE00060E08F730E942A02B7CF20918400309175
:100FF0008500E0913A018E2FEE0F990BFC01EE0F68
:10100000FF1FE80FF91FEE51FE4F81819281820F81
:10101000931F9093890080938800E0913A018E2F6E
:10102000EE0F990BFC01EE0FFF1FE80FF91FEE51B9
:10103000FE4F808186FF11C0E0913A018E2FEE0FA6
:10104000990BFC01EE0FFF1FE80FF91FEE51FE4F49
:10105000808161E08F730E942A02FF91EF91DF91FE
:10106000CF91BF91AF919F918F917F916F915F9140
:101070004F913F912F910F900FBE0F901F90189599
:1010800080E49CE990938900809388008FEF80939F
:101090003A01E3CF109248011092470188EE93E0A5
:1010A000A0E0B0E08093490190934A01A0934B01E6
:1010B000B0934C0188E091E0909346018093450104
:1010C00085EC90E0909352018093510184EC90E084
:1010D000909354018093530180EC90E090935601DB
:1010E0008093550181EC90E09093580180935701D3
:1010F00082EC90E090935A018093590186EC90E045
:1011000090935C0180935B0110925E0110925F01ED
:1011100010926001109261018AE191E090930B02BC
:1011200080930A028AE08093180289E08093190272
:10113000809106028C3098F491E0980F909306020B
:101140008093070290E0FC01EE0FFF1FE80FF91FEC
:10115000EE51FE4F88EB9BE09283818308958FEFE1
:10116000809307020895CF93DF93CDB7DEB7A197A1
:101170000FB6F894DEBF0FBECDBF789484B5826001
:1011800084BD84B5816084BD85B5826085BD85B52B
:10119000816085BD80916E00816080936E001092A9
:1011A0008100809181008260809381008091810024
:1011B00081608093810080918000816080938000B5
:1011C0008091B10084608093B1008091B000816013
:1011D0008093B00080917A00846080937A0080913F
:1011E0007A00826080937A0080917A008160809397
:1011F0007A0080917A00806880937A001092C10012
:10120000E0915501F091560182E08083E091510117
:10121000F09152011082E0915301F091540180E16C
:10122000808310925D01E0915901F0915A0186E0AE
:101230008083E0915701F091580180818061808323
:10124000E0915701F0915801808188608083E0919E
:101250005701F0915801808180688083E0915701A7
:10126000F091580180818F7D80831FB7F894809121
:101270004001811127C0E0E9F0E08491E4EAF0E068
:101280009491E82FF0E0EE0FFF1FEE58FF4FA5916D
:10129000B491EC91E92321F461E08AE00E942A02F2
:1012A00061E08AE00E9458028CB580618CBD8CB5EB
:1012B00080648CBD61E08DE00E94580261E08BE0AB
:1012C0000E945802809140018F5F809340011FBFB0
:1012D00061E0809118020E94580261E0809118023A
:1012E0000E942A02809119028F3F09F4FBC060E03E
:1012F0000E9458022091190230E0F901E255FF4F97
:101300008491F901E656FF4F0491F901EA57FF4F26
:1013100014911111D8C061E0809119020E94580205
:1013200060E0809119020E942A0283E090E0019718
:10133000F1F761E0809119020E942A0262E370E0F5
:1013400080E090E00E94AE0240E064E28AE092E039
:101350000E94450340E066E28AE092E00E94450375
:1013600046E268E48AE092E00E94450340E864E5D2
:101370008AE092E00E94450349EA66E58AE092E04D
:101380000E94450343E068E58AE092E00E9445033D
:1013900048EE6AE58AE092E00E94450340E46AE292
:1013A0008AE092E00E9445034DE362E28AE092E027
:1013B0000E94450368E28AE092E00E942703982F8A
:1013C0009370933039F0482F436068E28AE092E0EE
:1013D0000E944503809107028C3008F051C061E003
:1013E00087E00E94580280910702282F30E0F9011F
:1013F000EE0FFF1FE20FF31FEE51FE4F9081907C26
:101400009760908310920802109209022CE0622FDC
:101410000E944C0B829FB001112430E020E0AB0110
:10142000420F531FFA01EE0FFF1FE40FF51FEE519D
:10143000FE4F908196FD16C02F5F3F4F2C30310537
:1014400071F781110FC01092800082E080938100BB
:101450001092850010928400B19A80916F00826092
:1014600080936F00E09107028E2F90E0FC01EE0F59
:10147000FF1FE80FF91FEE51FE4F808180648083CB
:1014800091E1C92E92E0D92E2AE0422E512C612CF6
:10149000712C30E0A32E30E0B32E8AE092E00E945F
:1014A000F604811136C064EF71E080E090E00E94A4
:1014B000AE02A114B10489F30E945E01882369F38E
:1014C0000E940000EACF81110E940102E12FF0E0AA
:1014D000EE0FFF1FE458FF4FA591B491EC910E233E
:1014E00009F419CF4FE062E08AE092E00E944503E0
:1014F00013E062E370E080E090E00E94AE0262E000
:101500008AE092E00E94270384FF1ECF115089F7E2
:101510001BCF8AE092E00E94E002882309F4C3CF47
:1015200080E291E00E94DF068DE0E82E82E0F82E56
:10153000F70121917F0130E050E040E019A28E01D7
:101540000F5D1F4FCA01B901A30192010E941B0B3D
:10155000605DF80162938F01211531054105510548
:1015600089F7309719F0CF010E94DF068AE291E0F7
:101570000E94DF06CE14DF04D9F68CE291E00E94CF
:10158000DF0690910D0280910001981312C0909196
:101590000E028091010198130CC090910F0280916E
:1015A0000201981306C090910301809110029817D0
:1015B00039F08FE291E00E94DF0690E080E006C003
:1015C00083E391E00E94DF0684EB90E00E948F00AD
:1015D00070CF052E97FB1EF400940E94000B57FD60
:1015E00007D00E941B0B07FC03D04EF40C94000B99
:1015F00050954095309521953F4F4F4F5F4F08953F
:1016000090958095709561957F4F8F4F9F4F08956E
:101610000E943D0BA59F900DB49F900DA49F800D3F
:10162000911D11240895B7FF0C94080B0E94080B1C
:10163000821B930B0895A1E21A2EAA1BBB1BFD016E
:101640000DC0AA1FBB1FEE1FFF1FA217B307E407A1
:10165000F50720F0A21BB30BE40BF50B661F771FF9
:10166000881F991F1A9469F76095709580959095D9
:101670009B01AC01BD01CF010895A29FB001B39FB2
:10168000C001A39F700D811D1124911DB29F700D8B
:10169000811D1124911D0895991B79E004C0991FA3
:1016A000961708F0961B881F7A95C9F780950895BC
:1016B000EE0FFF1F0590F491E02D0994F894FFCFF1
:1016C00053027F31000000009401F4002101E10188
:1016D000520130014401000000005905F604E00207
:1016E00043617264205549443A0020000D0A004EBF
:0A16F0006F7420457175616C0000F5
:00000001FF
