:100000000C9462000C94E00B0C94B90B0C948A00D5
:100010000C948A000C948A000C948A000C948A0038
:100020000C948A000C948A000C948A000C94070C9F
:100030000C948A000C948A000C948A000C948A0018
:100040000C946F0B0C948A000C943D0B0C94170BC2
:100050000C948A000C948A000C948A000C948A00F8
:100060000C94C30C0C948A000000000025002800AA
:100070002B000000000023002600290000000008DB
:10008000000201000003040700000000000000005F
:1000900000000000240027002A00010204081020AC
:1000A000408001020408102001020408102004040A
:1000B0000404040404040202020202020303030310
:1000C0000303E20D11241FBECFEFD8E0DEBFCDBF8A
:1000D00011E0A0E0B1E0ECECFCE202C005900D9272
:1000E000A63DB107D9F724E0A6EDB1E001C01D920D
:1000F000A835B207E1F710E0C2E6D0E004C02197CE
:10010000FE010E94BD13C136D107C9F70E94E70E58
:100110000C9464160C9400008F929F92AF92BF9241
:10012000FF920F931F93CF93DF93F0906F032BE019
:100130002F1508F44CC02091710308E512E0021B52
:10014000110927FD1395000F111F000F111F20919A
:100150007003C8E8D0E0C21BD10927FDD395CC0FAE
:10016000DD1FCC0FDD1F4E010D2E000CAA08BB08B1
:100170009801012E000C440B550B281939094A0926
:100180005B09DC010E94411324EB30E040E050E0C9
:100190000E941713820E931EA41EB51E8C169D0678
:1001A0002CF0E801801691060CF4E4012297CC0FA4
:1001B000DD1F2FB7F8948F2D90E0FC01EE0FFF1F8D
:1001C000E80FF91FE65BFC4FD283C1832FBFDF919D
:1001D000CF911F910F91FF90BF90AF909F908F9004
:1001E00008958CBD9DBD089508950895AF92BF9266
:1001F000CF92DF92EF92FF920F931F93CF93DF93F3
:100200006C017B018B01040F151FEB015E01AE1821
:10021000BF08C017D10759F06991D601ED91FC9143
:100220000190F081E02DC6010995892B79F7C50170
:10023000DF91CF911F910F91FF90EF90DF90CF90C2
:10024000BF90AF900895FC01538D448D252F30E071
:10025000842F90E0821B930B541710F0CF960895D3
:1002600001970895FC01918D828D981761F0A28D00
:10027000AE0FBF2FB11D5D968C91928D9F5F9F73C6
:10028000928F90E008958FEF9FEF0895FC01918D7C
:10029000828D981731F0828DE80FF11D858D90E0E9
:1002A00008958FEF9FEF0895FC01918D228D892F86
:1002B00090E0805C9F4F821B91098F73992708956E
:1002C00081EA92E00E94540121E0892B09F420E0A8
:1002D000822F089580E090E0892B29F00E94600130
:1002E00081110C9400000895FC01A48DA80FB92F72
:1002F000B11DA35ABF4F2C91848D90E001968F734E
:100300009927848FA689B7892C93A089B1898C916C
:10031000837080648C93938D848D981306C00288BB
:10032000F389E02D80818F7D80830895EF92FF9285
:100330000F931F93CF93DF93EC0181E0888F9B8D08
:100340008C8D98131AC0E889F989808185FF15C0C2
:100350009FB7F894EE89FF896083E889F9898081E5
:100360008370806480839FBF81E090E0DF91CF91B4
:100370001F910F91FF90EF900895F62E0B8D10E0D6
:100380000F5F1F4F0F731127E02E8C8D8E110CC045
:100390000FB607FCFACFE889F989808185FFF5CF90
:1003A000CE010E947401F1CFEB8DEC0FFD2FF11DFA
:1003B000E35AFF4FF0829FB7F8940B8FEA89FB89CD
:1003C00080818062CFCFCF93DF93EC01888D88232B
:1003D000B9F0AA89BB89E889F9898C9185FD03C0A8
:1003E000808186FD0DC00FB607FCF7CF8C9185FF8D
:1003F000F2CF808185FFEDCFCE010E947401E9CF5D
:10040000DF91CF910895833081F028F4813099F005
:100410008230A9F008958730A9F08830C9F084307F
:10042000B1F4809180008F7D03C0809180008F7730
:1004300080938000089584B58F7784BD089584B536
:100440008F7DFBCF8091B0008F778093B0000895AF
:100450008091B0008F7DF9CFCF93DF93282F30E0CC
:10046000F901E458FF4F8491F901E656FF4FD4910A
:10047000F901E255FF4FC491CC23A1F081110E94F4
:100480000302EC2FF0E0EE0FFF1FEE58FF4FA59197
:10049000B491EC91ED2381E090E009F480E0DF91EC
:1004A000CF91089580E090E0FACF1F93CF93DF9330
:1004B000282F30E0F901E458FF4F8491F901E65606
:1004C000FF4FD491F901E255FF4FC491CC23A9F01D
:1004D000162F81110E940302EC2FF0E0EE0FFF1F98
:1004E000E859FF4FA591B4918FB7F894EC91111191
:1004F00008C0D095DE23DC938FBFDF91CF911F9191
:100500000895DE2BF8CFCF93DF9390E0FC01E65601
:10051000FF4F249182559F4FFC0184918823C9F09D
:1005200090E0880F991FFC01E057FF4FA591B4910F
:10053000FC01E859FF4FC591D49161110DC09FB7DF
:10054000F8948C91209582238C938881282328838A
:100550009FBFDF91CF910895623051F49FB7F89417
:100560003C91822F809583238C93E8812E2BEFCFB3
:100570008FB7F894EC912E2B2C938FBFEACF3FB717
:10058000F89480918E0290918F02A0919002B09188
:10059000910226B5A89B05C02F3F19F00196A11D19
:1005A000B11D3FBFBA2FA92F982F8827BC01CD01BD
:1005B000620F711D811D911D42E0660F771F881F1C
:1005C000991F4A95D1F708958F929F92AF92BF924B
:1005D000CF92DF92EF92FF926B017C010E94BF02EB
:1005E0004B015C01C114D104E104F104B9F00E9493
:1005F000BF02681979098A099B09683E7340810521
:10060000910580F321E0C21AD108E108F10888EED3
:10061000880E83E0981EA11CB11CE4CFFF90EF90E0
:10062000DF90CF90BF90AF909F908F9008952FB79D
:10063000F89460918A0270918B0280918C02909163
:100640008D022FBF0895089560E0FC0180810C9415
:10065000550220913E02260F3327331F21323105E8
:10066000ECF420916202FC0190E080E0243069F01B
:1006700082E00895A0913E022191AC01425E5D4F5F
:10068000A40FB52FB11D2C930196861798F3809176
:100690003E02680F60933E0280E0089581E0089575
:1006A0001092620281E0809364021092630261E022
:1006B00082E10E94550261E083E10E945502E9EB6C
:1006C000F0E080818E7F808380818D7F808388E4CD
:1006D0008093B80085E48093BC000895CF93DF93A6
:1006E00091E090931D028823B9F0C091B800D09199
:1006F000BA008091BC008A7B8093BC0060E082E1FC
:100700000E94550260E083E10E9455020E9450035E
:10071000D093BA00C093B800DF91CF9108950895A7
:10072000E0919A0280919902E81730F4F0E0E850E5
:10073000FE4F808190E008958FEF9FEF0895909194
:100740009A02809199022FEF3FEF981748F4E92F12
:10075000F0E0E850FE4F208130E09F5F90939A02D6
:10076000C90108958091990290919A02891B990B71
:100770000895CF92DF92EF92FF920F931F93CF9342
:10078000DF937C01CB018A012091F701222389F0BC
:10079000EB016B01C40ED51ECC15DD0569F0699126
:1007A000D701ED91FC910190F081E02DC7010995F1
:1007B000F3CF642F0E942903C801DF91CF911F91CD
:1007C0000F91FF90EF90DF90CF900895CF93DF933C
:1007D0001F92CDB7DEB769832091F7012223F9F08C
:1007E00020919702203258F021E030E0FC01338361
:1007F000228390E080E00F90DF91CF910895809167
:100800009802E82FF0E0E952FE4F998190838F5FC4
:10081000809398028093970281E090E0ECCF61E0B2
:10082000CE0101960E942903F7CFCF92DF92EF927B
:10083000FF920F931F93CF93DF93FC01C48121E0BC
:100840002093F701C093D60110929802109297025C
:100850008385682B8EE393E00E94E603D091970294
:10086000D13208F092C00E94BF026B017C018091DE
:100870006202811165C082E08093620281E0809310
:1008800064028FEF8093610210928602D0938502FA
:10089000A7EDB1E0E5E6F2E080E0D81385C0109264
:1008A000870280918702CC0FC82BC093870280916A
:1008B0006302813009F07CC0109263020E94BF0283
:1008C0006B017C01809187028093BB0080911902AB
:1008D00090911A02A0911B02B0911C02892B8A2BC5
:1008E0008B2B99F00E94BF020091190210911A02FD
:1008F00020911B0230911C026C197D098E099F0901
:100900000617170728073907E0F18091BC0083FD1F
:10091000D9CF85EC8093BC000E94BF026B017C01A3
:1009200080916202823009F445C0809161028F3F5C
:1009300061F180916102803241F18091610225C0B4
:100940008091190290911A02A0911B02B0911C0291
:10095000892B8A2B8B2B09F48ACF0E94BF0200912E
:10096000190210911A0220911B0230911C026C197D
:100970007D098E099F09061717072807390708F010
:1009800076CF809118020E946E0310929802109206
:1009900097021092F701DF91CF911F910F91FF9075
:1009A000EF90DF90CF9008959D9191938F5F75CFD9
:1009B00085EEB0CF8091190290911A02A0911B028E
:1009C000B0911C02892B8A2B8B2B09F4A9CF0E9492
:1009D000BF020091190210911A0220911B0230915E
:1009E0001C026C197D098E099F0906171707280735
:1009F000390708F095CFC5CF089590E080E00895BD
:100A0000BC016E5F7F4FDC01ED91FC910190F081A4
:100A1000E02D40E0099591E0811190E0892F089543
:100A200008958EBD00000DB407FEFDCF8EB508956C
:100A3000DF92EF92FF920F931F93CF93DF937C018E
:100A4000062FD42E152F80E590E00E94F10060E083
:100A5000F70186850E94550282E10E941105CD2D85
:100A6000D12F0C0F1D2F111DC017D10721F0899117
:100A70000E941105F9CF61E0F7018685DF91CF91E2
:100A80001F910F91FF90EF90DF900C9455021F93F0
:100A9000CF93DF93EC01162F80E590E00E94F100E8
:100AA00060E08E850E945502812F80680E941105AA
:100AB00080E00E941105182F61E08E850E9455028A
:100AC000812FDF91CF911F9108950F931F93CF93A3
:100AD000DF93EC01062F142F80E590E00E94F100D7
:100AE00060E08E850E945502802F0E941105812FA3
:100AF0000E94110561E08E85DF91CF911F910F91CA
:100B00000C945502CF92DF92EF92FF920F931F93B6
:100B1000CF93DF93EC016B01F42E890140E062E09A
:100B20000E94650544E06AE0CE010E94650540E848
:100B300064E1CE010E946505A6016F2DCE010E94E1
:100B4000180543E062E0CE010E9465050E9417038C
:100B50006B017C0129E5C20ED11CE11CF11C6AE08D
:100B6000CE010E94470582FF1BC040E062E0CE013B
:100B70000E94650564E4CE010E944705F801808368
:100B800062E4CE010E944705F801818380E0DF9195
:100B9000CF911F910F91FF90EF90DF90CF9008952C
:100BA0000E9417036C157D058E059F05C0F283E03A
:100BB000EECF2F923F924F925F926F927F928F92E1
:100BC0009F92AF92CF92DF92EF92FF920F931F937B
:100BD000CF93DF9300D0CDB7DEB74C012B01D42EDD
:100BE000390180E0E114F10411F0F70180813C2C1F
:100BF000329490EF3922380E40E062E0C4010E9446
:100C000065054FE768E0C4010E94650540E864E1BE
:100C1000C4010E946505A2016D2DC4010E94180542
:100C2000432D6AE1C4010E9465054CE062E0C40105
:100C30000E9465056AE1C4010E944705482F40688B
:100C40006AE1C4010E9465050E9417031B012C0183
:100C5000F4E22F0E311C411C511C68E0C4010E94BB
:100C60004705982F907309F0B7C080FF15C083E047
:100C70000F900F90DF91CF911F910F91FF90EF9008
:100C8000DF90CF90AF909F908F907F906F905F900C
:100C90004F903F902F9008950E941703621573059F
:100CA00084059505D0F2E3CF6114710409F469C09D
:100CB0000115110509F465C064E1C4010E944705EE
:100CC000382EF8018081831508F480C030823320EB
:100CD000E1F180E590E00E94F10060E0F40186859A
:100CE0000E9455023A9482E90E941105CC20B1F08D
:100CF0008FEF90E09C0102C0220F331FCA94E2F7ED
:100D0000690182E90E9411059C2D9095F3012081D3
:100D100092238C21982B9083CC24C39423014C0CD8
:100D2000511CC31440F482E90E941105F201819321
:100D30002F01C394F6CF80E00E941105F201808359
:100D400061E0F40186850E94550268E1C4010E94B9
:100D500047058770E114F10411F0F701808323FC4B
:100D600037C061147104B1F10115110599F1AA2080
:100D700089F1F8014081413031F4843029F58FEF59
:100D800077CF80E0ECCF4230F8F081111DC04250A7
:100D90009E012F5F3F4FB301C4010E948205811164
:100DA00067CFF8019081690E711CF30132972081A1
:100DB0009981291309C0F1E06F1A7108F3012081AC
:100DC0009A81291709F454CF87E052CF84E050CF9D
:100DD00082E04ECF80E04CCF6CE0C4010E9447051A
:100DE000282E837109F460CF81E042CF8F929F92C9
:100DF000AF92CF92EF92FF920F931F93CF93DF9317
:100E000000D000D01F92CDB7DEB74C0182E08D83B9
:100E100040E064E2C4010E94650540E066E2C4016E
:100E20000E94650546E268E4C4010E94650586E209
:100E30008B838D818230D8F16CE1C4010E9447051B
:100E4000482F4F776CE1C4010E94650587E08C83D1
:100E5000A12CC12CCE0104967C018E010B5F1F4F8B
:100E60009E012F5F3F4F41E0BE016D5F7F4FC40188
:100E70000E94D905982F811117C08D818230B9F455
:100E80008C81811114C081E00F900F900F900F9012
:100E90000F90DF91CF911F910F91FF90EF90CF9026
:100EA000AF909F908F90089581E0923069F380E039
:100EB000EBCF2F923F924F925F926F927F928F92E1
:100EC0009F92AF92BF92CF92DF92EF92FF920F93D9
:100ED0001F93CF93DF93CDB7DEB72D970FB6F8945E
:100EE000DEBF0FBECDBF16E0413508F04AC1342E3B
:100EF0003B014C016CE10E944705482F4F776CE1A4
:100F0000C4010E94650583E98983332029F081E0CB
:100F1000F3019081953008F480E022242394B12CD1
:100F20009B2D990F990F990FD32CD91AD7FCD12C3F
:100F300032E0882319F098E89B8333E021E09D2D6F
:100F4000977009F420E09D2D959595959595290F1D
:100F5000C9F094E0811193E0291708F4922FEB2D4A
:100F6000F0E03196E60DF71D232F4191A1E0B0E0AE
:100F7000AC0FBD1FA20FB11D4C932F5F422F431B1F
:100F8000491798F3882311F0F8E0DF0E8FE18D15F3
:100F90000CF082C090E79A838B819C8189279D8188
:100FA00089279E8189278F839E01285F3F4F47E0D5
:100FB000BE016F5F7F4FC4010E948205182F81110F
:100FC000E0C01A86E3E0EB87DC86CE0107962C01B1
:100FD00099E09D87CA844C2D4295407F4C0D6AE173
:100FE000C4010E946505A12CCE010A967C018E01E8
:100FF000055F1F4F92014D85BE016F5F7F4FC4019A
:101000000E94D905182F823009F065C06CE1C40137
:101010000E94470585FDB5C08F7109F480E2282F35
:1010200030E04D2DDD0C550B421753070CF09DC0E1
:10103000D82EE82FE595E595E595EF5F982F977009
:1010400081E009F480E0E80F81E090E08C0F9D1FC3
:101050008E0F911DFC01215031092770332781E04B
:1010600090E002C0880F991F2A95E2F79C018081C9
:10107000822B80838BCF85E98983332031F081E017
:10108000F3019081983008F04BCF80E049CF87E999
:10109000898326E0B22EF9CF9D2D97709A878D2DEA
:1010A0008595859585958E5F282F2295207F290F20
:1010B0002A8321E0911101C020E0280F2D874424CC
:1010C0004394512C4C0E5D1E480E511CE9E0E81B68
:1010D000EB87DC867FCF811154C080E2D82E9C85BF
:1010E00090320CF457CF8B81883809F040C083E0F0
:1010F00093E0EB2DF0E03196E60DF71D980FA1E09F
:10110000B0E0AC0FBD1FA80FB11D2C9121938F5FD4
:101110008913F5CFBB84E3E0BE124DC08A858111EF
:101120004AC09E012D5F3F4F41E0B201C4010E94C1
:101130008205182F811125C09B81F20181819813AE
:101140003CC09C818281981338C0808182FF12C08C
:101150002394F2E02F1609F48ECF83E0281609F4C9
:1011600096CF91E0291609F4CECE15E00AC082E0B0
:1011700094E0BFCFF3018387822D880F820D8F5FAC
:101180008083812F2D960FB6F894DEBF0FBECDBFA2
:10119000DF91CF911F910F91FF90EF90DF90CF9053
:1011A000BF90AF909F908F907F906F905F904F9087
:1011B0003F902F90089511E0E4CF17E0E2CFEF9237
:1011C000FF920F931F93CF93DF930BE912E08BE411
:1011D000E82E84E0F82ED0E0C0E0F80161918F01A4
:1011E000CE010E940913F70181917F01F801319727
:1011F00080832196C430D10581F781E08093A002DD
:1012000010929F02DF91CF911F910F91FF90EF906D
:10121000089585ED8093BC008091190290911A0287
:10122000A0911B02B0911C020796A11DB11D23E0E5
:10123000B695A795979587952A95D1F72091BC00EB
:1012400024FD03C01092620208954091190250914A
:101250001A0260911B0270911C02452B462B472BF2
:1012600069F30097A105B10541F025E32A95F1F74F
:1012700000000197A109B109E1CF809118020C94F7
:101280006E030F931F93CF938C01C62F0E941504FA
:101290006C2F6460C8010E9415046C2F6B7FC8011D
:1012A0000E94150483EC90E00197F1F7CF911F9114
:1012B0000F9108950F931F93CF93DF938C01D62F37
:1012C000C42F607F642B0E94410980E1D89FB00148
:1012D00011246C2BC801DF91CF911F910F910C94B9
:1012E0004109EF92FF921F93CF93DF93CDB7DEB703
:1012F00069970FB6F894DEBF0FBECDBF909147043B
:1013000091113EC0182F7F936F9386E491E09F93D5
:101310008F93CE0101967C019F938F930E94C313FC
:10132000812F98E0E4E0F1E0DE01529601900D9209
:101330009A95E1F7909197030F900F900F900F906F
:101340000F900F90911710F48FEF890FE82FF0E0B6
:10135000EE0FFF1FEE0DFF1D6189606840E08FE812
:1013600093E00E945A09F70101900020E9F73197B4
:10137000AF014E195F09B7018FE893E00E94F600B4
:1013800069960FB6F894DEBF0FBECDBFDF91CF9147
:101390001F91FF90EF900895CF92DF92EF92FF920E
:1013A0000F931F93CF93DF9381E080939F020E945E
:1013B0001703EB018091A002811161C06CE471E020
:1013C00090E080E00E9471096AE571E081E090E0C0
:1013D0000E94710980919F028823D1F10E94170316
:1013E0006B0188E494E00E94F606882371F088E49B
:1013F00094E00E940005882341F00E94DF0868EE17
:1014000073E080E090E00E94E402CC1ADD0A89E8F3
:10141000C81683E1D806F4F267E671E090E080E058
:101420000E9471096BE671E081E090E00E94710911
:101430008091A00281110CC065E771E090E080E02E
:101440000E94710965E871E081E090E00E947109F5
:101450000BE912E0D0E0C0E0F80161918F01CE010C
:101460000E9409132196C430D105B1F7DF91CF91C5
:101470001F910F91FF90EF90DF90CF90089560E95A
:1014800071E090E080E00E94710967E971E081E01D
:1014900090E00E94710980919F028823C9F20E9406
:1014A00017036B0188E494E00E94F606882371F02C
:1014B00088E494E00E940005882341F00E94DF0840
:1014C00068EE73E080E090E00E94E402CC1ADD0A4E
:1014D000E9E8CE16E3E1DE06F4F29ECF8091A002A9
:1014E000882309F49BC080919F02811197C088E4F2
:1014F00094E00E94F606882309F490C088E494E002
:101500000E940005882309F489C061E08091760378
:101510000E94550262E370E080E090E00E94E402E5
:1015200060E0809176030E94550290919B02809129
:101530004B04981345C090919C0280914C049813E1
:101540003FC090919D0280914D04981339C09091B5
:101550009E0280914E04981333C084EB90E00E9469
:101560008C0061E0809172030E94550284E793E051
:101570000E9424036FE971E090E080E00E9471090D
:1015800067EA71E081E090E00E94710968E873E128
:1015900080E090E00E94E40282E793E00E9424034E
:1015A00090E080E00E948C0067E671E090E080E0CF
:1015B0000E9471096BE671E081E090E00C94710982
:1015C00082E793E00E94240361E0809174030E940B
:1015D000550261E0809176030E9455026CE271E051
:1015E00080E090E00E94E40260E0809176030E9437
:1015F000550261EB71E090E080E00E94710967EBB9
:1016000071E081E090E00E94710960ED77E080E098
:1016100090E00E94E40284E793E0C0CF089541E0A7
:101620000E945A0981E090E008950C9401131F92E2
:101630000F920FB60F9211242F933F934F935F9306
:101640006F937F938F939F93AF93BF93EF93FF938A
:1016500081EA92E00E947401FF91EF91BF91AF91F6
:101660009F918F917F916F915F914F913F912F91BA
:101670000F900FBE0F901F9018951F920F920FB6EC
:101680000F9211242F938F939F93EF93FF93E091E9
:10169000B102F091B2028081E091B702F091B802FC
:1016A00082FD1BC090818091BA028F5F8F73209161
:1016B000BB02821741F0E091BA02F0E0EF55FD4F16
:1016C000958F8093BA02FF91EF919F918F912F9107
:1016D0000F900FBE0F901F9018958081F4CF1F922E
:1016E0000F920FB60F9211242F933F938F939F93D6
:1016F000AF93BF9380918A0290918B02A0918C024C
:10170000B0918D023091890223E0230F2D3758F5D7
:101710000196A11DB11D2093890280938A029093A6
:101720008B02A0938C02B0938D0280918E029091D7
:101730008F02A0919002B09191020196A11DB11D5E
:1017400080938E0290938F02A0939002B0939102A7
:10175000BF91AF919F918F913F912F910F900FBEAD
:101760000F901F90189526E8230F0296A11DB11D1A
:10177000D2CF1F920F920FB60F9211242F933F9347
:101780004F935F936F937F938F939F93AF93BF9389
:10179000EF93FF93E0910201F09103010995FF910E
:1017A000EF91BF91AF919F918F917F916F915F91D9
:1017B0004F913F912F910F900FBE0F901F90189552
:1017C0001F920F920FB60F9211242F933F934F93B6
:1017D0005F936F937F938F939F93AF93BF93EF9399
:1017E000FF93E0910001F09101010995FF91EF91C4
:1017F000BF91AF919F918F917F916F915F914F9129
:101800003F912F910F900FBE0F901F9018951F9230
:101810000F920FB60F9211242F933F934F935F9324
:101820006F937F938F939F93AF93BF93CF93DF93E8
:10183000EF93FF9380918802C0916E03D0E087FF01
:1018400024C01092850010928400809188028F5FDE
:101850008093880280918802082E000C990B8C17C7
:101860009D0724F4809188028C30C4F1809184001B
:1018700090918500049680349C4908F47AC0809148
:10188000840090918500049676C080918802082E8D
:10189000000C990B8C179D07C4F6E09188028E2FDF
:1018A000EE0F990BFC01EE0FFF1FE80FF91FE65B2F
:1018B000FC4F808186FFC9CFE09188028E2FEE0F0A
:1018C000990BFC01EE0FFF1FE80FF91FE65BFC4FC1
:1018D000808160E08F730E945502B7CF2091840011
:1018E00030918500E09188028E2FEE0F990BFC015C
:1018F000EE0FFF1FE80FF91FE65BFC4F818192811D
:10190000820F931F9093890080938800E091880252
:101910008E2FEE0F990BFC01EE0FFF1FE80FF91F42
:10192000E65BFC4F808186FF11C0E09188028E2F1C
:10193000EE0F990BFC01EE0FFF1FE80FF91FE65B9E
:10194000FC4F808161E08F730E945502FF91EF91FF
:10195000DF91CF91BF91AF919F918F917F916F91C7
:101960005F914F913F912F910F900FBE0F901F905D
:10197000189580E49CE990938900809388008FEF0C
:1019800080938802E3CF1F920F920FB60F9211241B
:101990002F933F934F935F936F937F938F939F9377
:1019A000AF93BF93EF93FF938091B900887F803608
:1019B00009F44AC0F0F5883209F4A7C018F580315F
:1019C00009F49BC0B8F4882309F4F9C0883009F4FD
:1019D00094C0FF91EF91BF91AF919F918F917F91B3
:1019E0006F915F914F913F912F910F900FBE0F908C
:1019F0001F901895883109F488C0803251F7809380
:101A0000610214C0803409F49DC040F48033B9F3FE
:101A10008833F9F68093610285ECB0C0803509F413
:101A200085C0883509F496C0883499F60E94090962
:101A3000D0CF883909F48CC038F5883729F050F4B4
:101A4000883611F0803729F683E080936202109285
:101A5000600257C0883809F47BC0803919F080389B
:101A600009F0B7CF80916002803208F071C0E09138
:101A7000600281E08E0F809360028091BB00F0E0F5
:101A8000E05CFD4F80833DC0803B39F0E0F4803A5C
:101A900009F479C0883A09F09CCF84E0809362020F
:101AA00010923F0210923E02E0919502F091960250
:101AB000099580913E0281110FC081E080933E0222
:101AC00010921E0209C0803C09F4A6CF883C09F49C
:101AD000A3CF883B09F07DCFE0913F0281E08E0FDC
:101AE00080933F02F0E0E25EFD4F80818093BB0077
:101AF00090913F0280913E0229C08091870280939D
:101B0000BB0085EC8093BC0064CF909186028091ED
:101B10008502981758F5E091860281E08E0F809338
:101B20008602F0E0EB59FD4F8081E9CFE09186021B
:101B300081E08E0F809386028091BB00F0E0EB592C
:101B4000FD4F808390918602809185029817C8F29C
:101B500085E8D8CFE091860281E08E0F80938602DF
:101B60008091BB00F0E0EB59FD4F808380916402CF
:101B700081115CCF81E08093630284EA8093BC0092
:101B80001092620226CF85EC8093BC001092620214
:101B900080916002803230F4E0916002F0E0E05C1D
:101BA000FD4F10826091600270E0E0919302F0912D
:101BB000940280E492E00995109260020ACF10929C
:101BC000610234CFCF93DF931092A4021092A3024C
:101BD00088EE93E0A0E0B0E08093A5029093A60287
:101BE000A093A702B093A80220E131E03093A202B3
:101BF0002093A10225EC30E03093AE022093AD0299
:101C000024EC30E03093B0022093AF0220EC30E0BF
:101C10003093B2022093B10221EC30E03093B40251
:101C20002093B30222EC30E03093B6022093B50249
:101C300026EC30E03093B8022093B7021092BA023B
:101C40001092BB021092BC021092BD02109241038E
:101C5000109240038093420390934303A093440364
:101C6000B093450382E291E090933F0380933E035B
:101C700080E491E090934904809348048AE0809343
:101C8000560489E08093570480E092ECA1E0B0E034
:101C900080938B0390938C03A0938D03B0938E035A
:101CA000109292031092910384E391E09093900339
:101CB00080938F0387E28093930380E1809398035E
:101CC00082E08093990310929A030E941703C7E25F
:101CD000D4E0E3ECF3E04BE953E019921192119256
:101CE000DA016D937D938D939D93AD019F01225BEE
:101CF0003F4FD9011D921C92B3E0E73DFB0769F706
:101D000010924604109245041092470482E090E03D
:101D1000909384038093830362E00E948302109275
:101D200086031092850388E090E090937703809378
:101D30007603109279031092780310927D0310922B
:101D40007C0384E690E090937B0380937A030E9467
:101D5000170360937E0370937F03809380039093B7
:101D6000810361E088E00E94830281E08093820326
:101D700085E090E0909375038093740361E00E9486
:101D8000830284E090E0909373038093720361E098
:101D90000E94830280916E038C30A8F491E0980F2A
:101DA00090936E0380936F0390E0FC01EE0FFF1F92
:101DB000E80FF91FE65BFC4F88EB9BE09283818381
:101DC000DF91CF9108958FEF80936F03F9CFCF9379
:101DD000DF9300D000D0CDB7DEB7789484B58260B1
:101DE00084BD84B5816084BD85B5826085BD85B5BF
:101DF000816085BD80916E00816080936E0010923D
:101E000081008091810082608093810080918100B7
:101E10008160809381008091800081608093800048
:101E20008091B10084608093B1008091B0008160A6
:101E30008093B00080917A00846080937A008091D2
:101E40007A00826080937A0080917A00816080932A
:101E50007A0080917A00806880937A001092C100A5
:101E600080916F038C3008F051C061E087E00E94E0
:101E7000830280916F03282F30E0F901EE0FFF1FDE
:101E8000E20FF31FE65BFC4F9081907C976090839C
:101E900010927003109271032CE0622F0E94B11314
:101EA000829FB001112430E020E0AB01420F531FAC
:101EB000FA01EE0FFF1FE40FF51FE65BFC4F908168
:101EC00096FD16C02F5F3F4F2C30310571F7811101
:101ED0000FC01092800082E08093810010928500F4
:101EE00010928400B19A80916F00826080936F009D
:101EF000E0916F038E2F90E0FC01EE0FFF1FE80FC3
:101F0000F91FE65BFC4F80818064808390E080E075
:101F10000E948C008CEC99E090938603809385035B
:101F20002FB72983F89480919202811127C0E8EBA2
:101F3000F0E08491E4EAF0E09491E82FF0E0EE0F15
:101F4000FF1FE057FF4FA591B491EC91E92321F4D5
:101F500061E08AE00E94550261E08AE00E9483020B
:101F60008CB580618CBD8CB580648CBD61E08DE0EA
:101F70000E94830261E08BE00E94830280919202C2
:101F80008F5F8093920239813FBF61E08091560458
:101F90000E94830261E0809156040E945502809164
:101FA00057048F3F09F477C260E00E94830280915A
:101FB00057040E942C02892B09F06DC261E08091C8
:101FC00057040E94830260E0809157040E945502EA
:101FD00083E090E00197F1F761E0809157040E945F
:101FE000550262E370E080E090E00E94E40240E08D
:101FF00064E288E494E00E94650540E066E288E4DB
:1020000094E00E94650546E268E488E494E00E945A
:10201000650540E864E588E494E00E94650549EAC6
:1020200066E588E494E00E94650543E068E588E49D
:1020300094E00E94650548EE6AE588E494E00E9419
:10204000650540E46AE288E494E00E9465054DE39A
:1020500062E288E494E00E94650568E288E494E026
:102060000E944705982F9370933039F0482F4360B2
:1020700068E288E494E00E946505809145049091AF
:1020800046040A9784F4E3ECF3E01A821982819102
:102090009191892B09F474C289819A8101969A835E
:1020A00089830A97A1F7C0908B03D0908C03E090AE
:1020B0008D03F0908E0360E079E08DE390E0A7015E
:1020C00096010E948013215031094109510956950A
:1020D000479537952795E091B102F091B20282E0E1
:1020E0008083C11491EED906E104F10421F0211599
:1020F000A0E13A07A8F0E091B102F091B20210829B
:1021000060E874E88EE190E0A70196010E948013D8
:102110002150310941095109569547953795279521
:10212000E091AD02F091AE023083E091AF02F09108
:10213000B00220831092B902E091B502F091B6028C
:1021400086E08083E091B302F091B40280818061E7
:102150008083E091B302F091B40280818860808333
:10216000E091B302F091B402808180688083E091B5
:10217000B302F091B40280818F7D80838091470407
:1021800081118AC010929A021092990210929802BC
:10219000109297020E94500384EF90E09093960271
:1021A0008093950285EF90E0909394028093930240
:1021B0001092940380919903823018F098E09093E4
:1021C00094038093970362E370E080E090E00E94C4
:1021D000E40260919A038FE893E00E94150468EE90
:1021E00073E080E090E00E94E40260E38FE893E017
:1021F0000E9441098BE496E40197F1F760E38FE8D0
:1022000093E00E944109EBE4F6E43197F1F760E3D3
:102210008FE893E00E94410983E592E00197F1F78E
:1022200060E28FE893E00E9441096091940360624C
:1022300040E08FE893E00E945A0984E08093950380
:1022400040E06CE08FE893E00E945A0940E061E0D2
:102250008FE893E00E945A098BE39FE10197F1F721
:1022600082E08093960340E066E08FE893E00E946E
:102270005A0940E062E08FE893E00E945A092BE39C
:102280003FE1C9010197F1F788E080939A0360E08C
:102290008FE893E00E94150465E771E090E080E02C
:1022A0000E94710965E871E081E090E00E94710987
:1022B0000BE912E01A82198289819A810E94150B1A
:1022C000D8018D938D01E981FA813196FA83E983F2
:1022D000349791F790E080E00E94150B882309F174
:1022E00081E090E00E94150B8823D9F082E090E015
:1022F0000E94150B8823A9F083E090E00E94150B43
:10230000882379F081E08093A00267E671E090E095
:1023100080E00E9471096BE671E081E090E00E942C
:10232000710901E010E052E0252E312C0E941703C4
:102330004B015C01E3ECF3E02BE833E03C832B83BF
:102340003A83298390E080E0AF0142595F4FDA0180
:102350001D921C92208131813296232BD1F1A981CB
:10236000BA8150964D915D916D917C9153979D01ED
:10237000245B3F4FD901CD90DD90ED90FC9024017E
:102380003501441A550A660A770A4C145D046E0436
:102390007F04F8F04C0D5D1D6E1D7F1DA981BA8173
:1023A00050964D935D936D937C9353979C01295D5B
:1023B0003B4FD9012C91222361F022AD33AD211581
:1023C000310509F083C09F0124593F4FD9010D9376
:1023D0001C93019629813A812C5F3F4F3A832983D0
:1023E0008A30910509F0B0CFF12CE12CCB80DC8054
:1023F00036EAC30ED11CD6018D919C918130910596
:1024000009F483C0029709F487C0BFEFEB1AFB0AF7
:10241000EB81FC813296FC83EB83FAE0EF16F1044A
:1024200029F7809183030E942C029A8389836AE0B2
:1024300070E080E090E00E94E402809183030E94BB
:102440002C0229813A81232B49F0892B39F4E09120
:102450008503F0918603309709F009958091A002D9
:1024600081110CC060EC71E090E080E00E94710985
:1024700068EC71E081E090E00E94710980E090E0FA
:10248000892B09F453CF0E946001882309F44ECFB1
:102490000E9400004BCF4FE062E088E494E00E948D
:1024A000650543E0498362E370E080E090E00E94CC
:1024B000E40262E088E494E00E94470584FF97CD3F
:1024C0006981615069836111EECF91CD6F01BEE4E6
:1024D000CB0ED11CD601ED90FC90E216F3060CF069
:1024E00078CFAF0144595F4FDA010D931C93BFEFD2
:1024F000EB1AFB0AD601ED92FC92E216F3060CF4FD
:1025000068CFDA012D923C9264CFAB81BC81D89622
:10251000ED91FC91099579CFAB81BC81D896ED9175
:10252000FC9109958091450490914604009709F427
:102530006CCFEB81FC8120AD31AD232B09F465CF4D
:1025400011AE10AEF701E95DFB4F1082D6011D926E
:102550001C92F701EE0FFF1FEE0FFF1FE952FC4F19
:102560001082118212821382EB81FC81E857FF4FA7
:10257000118210820197909346048093450445CFC1
:10258000E981FA81EE0FFF1FEE0FFF1FE953FC4FA9
:1025900088EE93E0A0E0B0E0808B918BA28BB38BB0
:1025A000E981FA81EE0FFF1FED54FC4F8EE69AE0B1
:1025B000918B808BE981FA81EE0FFF1FE151FC4F77
:1025C000118A108AE981FA81E95DFB4F81E08083FD
:1025D0000E941703A981BA81AA0FBB1FAA0FBB1FB4
:1025E000A557BC4FFD01608B718B828B938B8091C3
:1025F00045049091460401969093460480934504C7
:1026000052CDF999FECF92BD81BDF89A992780B538
:102610000895262FF999FECF1FBA92BD81BD20BD26
:102620000FB6F894FA9AF99A0FBE01960895052EFE
:1026300097FB1EF400940E942E1357FD07D00E94B2
:10264000801307FC03D04EF40C942E135095409544
:10265000309521953F4F4F4F5F4F0895909580954E
:10266000709561957F4F8F4F9F4F08950E94A213E1
:10267000A59F900DB49F900DA49F800D911D1124D6
:102680000895B7FF0C9436130E943613821B930BE8
:1026900008952F923F924F925F926F927F928F9206
:1026A0009F92AF92BF92CF92DF92EF92FF920F93E1
:1026B0001F93CF93DF93CDB7DEB7CA1BDB0B0FB6EB
:1026C000F894DEBF0FBECDBF09942A8839884888A8
:1026D0005F846E847D848C849B84AA84B984C8843E
:1026E000DF80EE80FD800C811B81AA81B981CE0F35
:1026F000D11D0FB6F894DEBF0FBECDBFED0108951A
:10270000A1E21A2EAA1BBB1BFD010DC0AA1FBB1FF5
:10271000EE1FFF1FA217B307E407F50720F0A21B67
:10272000B30BE40BF50B661F771F881F991F1A94D4
:1027300069F760957095809590959B01AC01BD01FE
:10274000CF010895A29FB001B39FC001A39F700D58
:10275000811D1124911DB29F700D811D1124911DA9
:102760000895991B79E004C0991F961708F0961BED
:10277000881F7A95C9F780950895EE0FFF1F059081
:10278000F491E02D0994AEE0B0E0E9ECF3E10C94B3
:1027900057130D891E8986E08C831A8309838FEF76
:1027A0009FE79E838D83AE01475E5F4F6F89788D73
:1027B000CE0101960E94E6132F813885020F131F68
:1027C000F80110822E96E4E00C947313ABE0B0E0B5
:1027D000ECEEF3E10C9449137C013B018A01FC010E
:1027E00017821682838181FFC8C1CE0101965C01E8
:1027F000F7019381F30193FD859193FF81913F014F
:10280000882309F453C1853239F493FD859193FFF0
:1028100081913F01853229F4B70190E00E94D615DD
:10282000E7CF912C212C312CFFE1F31538F08B32BE
:1028300011F190F4803209F1833229F137FC3CC068
:1028400020ED280F2A3050F536FE20C08AE0989EF1
:10285000200D1124922E06C08D3291F0803371F735
:10286000689430F8F30193FD859193FF81913F01C6
:102870008111DACF21C0689431F8689432F8F2CF30
:10288000689433F8EFCF689434F8ECCFEAE02E9EEA
:10289000200D1124222E689435F8E4CF8E3229F4CD
:1028A00036FC04C1689436F8DDCF8C3619F4689490
:1028B00037F8D8CF8836B1F2982F9F7D9554933052
:1028C000E0F08336A1F18337C1F1833509F063C0AD
:1028D0002801F2E04F0E511CF801C080D180692D13
:1028E00070E036FC02C06FEF7FEFC6010E94C0159A
:1028F0004C01689437F882010AC00C5F1F4FFFE358
:10290000F98388248394912C6501E89437F833FE89
:102910002DC0522C8114910471F5552009F468CF13
:10292000B70180E290E00E94D6155A94F6CFF801E4
:10293000808189830E5F1F4FE4CF2801F2E04F0EA4
:10294000511CF801C080D180692D70E036FC02C0B6
:102950006FEF7FEFC6010E94CB154C018201D5CFEE
:10296000B70180E290E00E94D6152A942814190439
:1029700009F0B0F7CECFF60137FC859137FE819193
:102980006F01B70190E00E94D61551105A94F1E002
:102990008F1A9108BFCF843619F0893609F077C0B5
:1029A000F80137FE6BC060817181828193810C5F79
:1029B0001F4FF32DFF763F2E97FF09C0909580950E
:1029C000709561957F4F8F4F9F4F689437F82AE03D
:1029D00030E0A5010E940616C82ECA188C2C432C84
:1029E00036FE0CC0E89440F8C91440F434FE05C02B
:1029F00032FC03C0F32DFE7E4F2E892C44FE95C081
:102A0000FE01EC0DF11D8081803309F087C0242D7B
:102A1000297E422E842D8870582E43FC95C040FE9E
:102A20008FC09C2C821418F42C0C922C981844FE05
:102A300091C0B70180E390E00E94D61542FE09C024
:102A400088E790E041FE02C088E590E0B7010E946F
:102A5000D615C91408F48AC0CA94D12C9FEFC91A9C
:102A6000D90ACA0CDB1CF60182916F01B70190E014
:102A70000E94D615AC14BD04B1F74FCF60817181AF
:102A8000072E000C880B990B0E5F1F4F92CFD32C93
:102A9000E894D4F82AE030E0853739F1232D297FF6
:102AA000D22E8F3601F148F48835A9F0F7018681DE
:102AB00097812B96E2E10C946513803749F08837B3
:102AC000A9F7D4FE02C06894D2F820E130E00DC02E
:102AD0006894D4F8F6CF34FE03C0822F8660D82ED7
:102AE00020E132E002C028E030E0F801D7FE0FC05C
:102AF00060817181828193810C5F1F4FA5010E94CB
:102B00000616C82ECA183D2CE89437F867CF6081A6
:102B1000718190E080E00E5F1F4FF0CF42FC02C059
:102B2000839478CF8394839475CF842D867809F429
:102B300071CFF6CFB70180E290E00E94D615839462
:102B40008214C0F3512C73CF522C5818821408F4FD
:102B50006ECFF8CF842D867809F47BCF8BE241FECF
:102B600080E247FC8DE2B70190E071CFB70180E3CE
:102B700090E00E94D6159A946CCF8FEF9FEF99CF7B
:102B8000FC010590615070400110D8F78095909538
:102B90008E0F9F1F0895FC0161507040019001103D
:102BA000D8F7809590958E0F9F1F08950F931F93D0
:102BB000CF93DF93182F092FEB018B8181FD09C083
:102BC0001FEF0FEF812F902FDF91CF911F910F916A
:102BD000089582FF14C02E813F818C819D8128172A
:102BE00039073CF4E881F981CF0101969983888304
:102BF00010838E819F8101969F838E83E3CFE8852A
:102C0000F985812F0995892BA1F3DACFFA01AA273B
:102C1000283051F1203181F1E8946F936E7F6E5F1F
:102C20007F4F8F4F9F4FAF4FB1E03ED0B4E03CD0CD
:102C3000670F781F891F9A1FA11D680F791F8A1FB0
:102C4000911DA11D6A0F711D811D911DA11D20D017
:102C500009F468943F912AE0269F11243019305DD1
:102C60003193DEF6CF010895462F4770405D4193C2
:102C7000B3E00FD0C9F7F6CF462F4F70405D4A330F
:102C800018F0495D31FD4052419302D0A9F7EACFD7
:102C9000B4E0A6959795879577956795BA95C9F706
:102CA00000976105710508959B01AC010A2E0694F9
:102CB0005795479537952795BA95C9F7620F731FB2
:0C2CC000841F951FA01D0895F894FFCFFD
:102CCC002303230300004000140054000000000004
:102CDC009601F6002301E301540132014601000084
:102CEC000000E603B903FD048F03B2039F039003B6
:102CFC00000000000F0BF600FD04FC0400000000B7
:102D0C005907F6060005252D3136730054616720EE
:102D1C00666F7220466972737400526567697374CA
:102D2C00726174696F6E0054616700596F7572201F
:102D3C005246494400504C45415345205245474961
:102D4C0053544552004E4F2049442C204E4F5700AF
:102D5C004368616E676500596F7572204964004362
:102D6C006F727265637400446F6F72204F70656E82
:102D7C000057726F6E670052657472792E2E2E009A
:102D8C0054414720464F52005245474953545241F3
:062D9C0054494F4E0000F7
:00000001FF
